:100000000C9478000C948C000C948C000C948C0054
:100010000C948C000C948C000C948C000C948C0030
:100020000C948C000C948C000C948C000C948C0020
:100030000C948C000C948C000C948C000C948C0010
:100040000C948C000C94CE010C948C000C948C00BD
:100050000C948C000C948C000C948C000C948C00F0
:100060000C948C000C948C000C948C000C948C00E0
:100070000C948C000C948C000C948C000C948C00D0
:100080000C948C000C948C000C948C000C948C00C0
:100090000C948C000C948C000C948C000C948C00B0
:1000A0000C948C000C948C000C948C000C948C00A0
:1000B0000C948C000C948C000C948C000C948C0090
:1000C0000C948C000C948C000C948C000C948C0080
:1000D0000C948C000C948C000C948C000C948C0070
:1000E0000C948C000C9491000C948E000C94940051
:1000F00011241FBECFEFD1E2DEBFCDBF00E00CBFA9
:1001000026E0A0E0B2E001C01D92AC32B207E1F7F8
:100110000E94EB020C94FB020C9400002E982E9A85
:10012000FDCF2F982F9AFDCF80910202909103026C
:10013000892B69F0F894E0910602F0910702EA5FDA
:10014000FE4F83E090E0918380830C944E020895EB
:10015000E1E8F0E080818B6080831092850010924E
:10016000840083EC99E09093890080938800EFE607
:10017000F0E080818260808378940895FC0132965B
:1001800020E031E0DF01A9011D9241505040E1F72C
:10019000E150FF4F24E930E02083319730833197DD
:1001A00010823197608331977083319710829C0160
:1001B00027523F4FDC012D933C9338966083718327
:1001C0003296118210828E5F9E4F21E030E0FC015A
:1001D000318320830895EAE0F3E030E020E04081BD
:1001E0005181452B39F02F5F3F4FE85FFE4F2430A0
:1001F0003105A9F740910002509101024F5F5F4F16
:10020000509301024093000268E071E0269FA00134
:10021000279F500D369F500D1124BC01CA01885FE5
:100220009D4F0C94BE001092010210920002109299
:100230000302109202021092050210920402E8E0FA
:10024000F2E088E091E0DF019C011D9221503040F6
:10025000E1F7DF01AE5FBE4F1D921C92E85FFE4FDB
:1002600036E0E832F30779F70895CF93DF93809172
:10027000020290910302892B09F056C0809100027E
:1002800090910102892B09F44FC0F89481E090E02D
:1002900090930302809302020E94A302C1E0D0E087
:1002A000E0910602F0910702DF01AA5FBE4F1196AE
:1002B0001C921E928081918190932906809328063A
:1002C0000E94F901E0910602F09107028091280650
:1002D0009091290691838083DF01AA5FBE4F8D91A3
:1002E0009C918130910559F0C0F082309105A9F0C0
:1002F0000397B1F6EE5FFE4F1182108212C0EC5FE1
:10030000FE4F8081918120910002309101022430C2
:10031000310531F20E94EB00C3CFEE5FFE4FD18377
:10032000C0830E94A302BCCFDF91CF91089520919A
:10033000020230910302232B99F0F89420910602D7
:1003400030910702F901EA5FFE4F41E050E051832E
:1003500040832C5F3E4FF901918380830C944E02C1
:1003600020910002309101022430310511F00C94EB
:10037000EB0008958091020290910302892B69F0AD
:10038000F894E0910602F0910702EA5FFE4F82E0E6
:1003900090E0918380830C944E0208951F920F92F7
:1003A0000FB60F9211240BB60F922F933F934F93DA
:1003B0005F936F937F938F939F93AF93BF93EF93CD
:1003C000FF93249A2C9A0E94BA012C98FF91EF91E6
:1003D000BF91AF919F918F917F916F915F914F915D
:1003E0003F912F910F900BBE0F900FBE0F901F905B
:1003F00018950F921F922F923F924F925F926F9299
:100400007F928F929F92AF92BF92CF92DF92EF92A4
:10041000FF920F931F932F933F934F935F936F938D
:100420007F938F939F93AF93BF93CF93DF93EF937C
:10043000FF930FB70F930CB70F93EDB7FEB7E09391
:100440002A06F0932B06E0912806F0912906EDBFCD
:10045000FEBF0F910CBF0F910FBFFF91EF91DF9186
:10046000CF91BF91AF919F918F917F916F915F914C
:100470004F913F912F911F910F91FF90EF90DF903F
:10048000CF90BF90AF909F908F907F906F905F9034
:100490004F903F902F901F900F9018950F921F92A2
:1004A0002F923F924F925F926F927F928F929F9284
:1004B000AF92BF92CF92DF92EF92FF920F931F9372
:1004C0002F933F934F935F936F937F938F939F935C
:1004D000AF93BF93CF93DF93EF93FF930FB70F9338
:1004E0000CB70F93EDB7FEB7E0932806F0932906FB
:1004F000E0912A06F0912B06EDBFFEBF0F910CBFD5
:100500000F910FBFFF91EF91DF91CF91BF91AF910D
:100510009F918F917F916F915F914F913F912F911B
:100520001F910F91FF90EF90DF90CF90BF90AF9011
:100530009F908F907F906F905F904F903F902F9003
:100540001F900F90089528E031E08091040290916F
:100550000502829FF001839FF00D929FF00D112400
:10056000E65FFC4F80819181019749F580910402FB
:1005700090910502829FF001839FF00D929FF00DF4
:100580001124E85FFD4FF0930702E093060280819B
:1005900091819093290680932806EE5FFE4F82E0BA
:1005A00090E09183808380910402909105020196EE
:1005B0008370992790930502809304020895809197
:1005C0000402909105020196837099279093050289
:1005D00080930402BACF269A279A0E94A8000E940C
:1005E000130181E990E00E9497018EE890E00E945B
:0A05F00097010C943501F894FFCF39
:00000001FF
